:020000040800F2
:1000000088B30624AD02000835270208F509000868
:10001000D11902084B2A0008093903080000000022
:10002000000000000000000000000000BD8F02087A
:10003000C53E000800000000D539020825950208D9
:10004000C7020008C7020008C7020008C70200086C
:10005000C7020008C7020008C7020008C70200085C
:10006000C7020008C7020008C7020008C70200084C
:100070003D370008C7020008C7020008C702000891
:10008000C7020008C7020008C7020008E18800088C
:1000900001890008F188000811890008DD8700083F
:1000A000C7020008C7020008C7020008C70200080C
:1000B000B9970208C7020008FD980208C7020008A5
:1000C000C7020008C7020008C7020008C7020008EC
:1000D000C702000885E7020895E70208A5E70208BD
:1000E000C7020008C702000800000000C70200089D
:1000F000C7020008C7020008C70200084D37000801
:10010000C7020008516E02080D990208C7020008D4
:10011000C7020008C7020008C7020008E1990208E8
:10012000C7020008B9370008C7020008C702000864
:10013000C9370008C7020008C70200082189000863
:1001400000000000000000000000000000000000AF
:10015000C7020008DD370008C7020008B5E702083B
:10016000C7020008C7020008C7020008C70200084B
:10017000C70200080D2E020825320008000000000A
:10018000C7020008C7020008C7020008C70200082B
:10019000C7020008C7020008C7020008C70200081B
:1001A0003D050208C7020008C7020008C702000890
:1001B00045430208C7020008C7020008C70200083A
:1001C000C7020008C7020008C7020008C7020008EB
:1001D000C7020008FD2D0208C7020008C702000878
:1001E000C7020008C7020008C7020008C7020008CB
:1001F000C7020008C7020008C7020008C7020008BB
:10020000C7020008C7020008C7020008C7020008AA
:10021000C7020008C7020008C7020008C70200089A
:10022000C7020008C7020008990802080000000081
:10023000C7020008C702000800000000C70200084B
:10024000C7020008C7020008C7020008C70200086A
:10025000C7020008C7020008C7020008C70200085A
:10026000C7020008C7020008C7020008C70200084A
:10027000C7020008C7020008C7020008000000000B
:10028000C702000800000000C702000800000000CC
:1002900000000000C7020008DFF80CD000F0FEFAF2
:1002A0000048004729DB030888B306240648804736
:1002B00006480047FEE7FEE7FEE7FEE7FEE7FEE74B
:1002C000FEE7FEE7FEE7FEE7259702089902000831
:1002D0002DE9F05F0546002092469B46884606467B
:1002E000814640241BE0284641464746224600F00E
:1002F0000CF953465A46C01A914110D3114618467C
:10030000224600F0F3F82D1A67EB01084F4622460B
:100310000120002100F0EAF817EB00094E41201EF1
:10032000A4F10104DFDC484631462A464346BDE8D5
:10033000F09F2DE9F0410024061B254671F10006CF
:1003400005DA01240027D0EB070067EB0101161E38
:1003500073F1000605DA0027D2EB0702012567EBEF
:100360000303FFF7B5FF86460E4617469C46AC4290
:1003700004D00025D0EB050E65EB010624B100206A
:10038000D2EB000760EB030C704631463A466346F9
:10039000BDE8F08140EA01039B0703D009E008C9EA
:1003A000121F08C0042AFAD203E011F8013B00F83A
:1003B000013B521EF9D27047D2B201E000F8012B86
:1003C000491EFBD270470022F6E710B513460A46D5
:1003D00004461946FFF7F0FF204610BD30B505462C
:1003E0002A460B4612F8010B13F8014B08B1A04244
:1003F000F8D01CB1002802D06D1CF1E7284630BDB2
:1004000010B5044604E00B7800F8013B03B1491C29
:10041000521EF8D2204610BDCAB2401E10F8011F6D
:100420008A4202D00029F9D100207047421C10F8FE
:10043000011B0029FBD1801A704710B5002200E093
:10044000521C835C8C5CA34201D1002BF8D1D8B242
:10045000E1B2401A10BD30B504460020034600E06A
:100460005B1C934203D2E05CCD5C401BF8D030BDF6
:10047000034611F8012B00F8012B002AF9D1184688
:10048000704730B505460020034600E05B1C9342F0
:1004900005D2EC5CC85C201A01D1002CF6D130BD2D
:1004A0000246C9B200E0401C0378002BFBD102E0F9
:1004B00003788B4203D0401E9042F9D2002070474F
:1004C00030B50B46014600202022012409E021FA24
:1004D00002F59D4205D303FA02F5491B04FA02F521
:1004E0002844151EA2F10102F1DC30BD202A04DBF4
:1004F000203A00FA02F1002070479140C2F1200337
:1005000020FA03F3194390407047202A04DB203A75
:1005100021FA02F00021704721FA02F3D040C2F123
:10052000200291400843194670472DE9FE4F80464E
:1005300081EA0300C00F0C46009021F0004123F037
:100540000045B8EB0200A94105D24046214690463D
:100550001C460B46024623F00040104347D0270DAF
:10056000C7F30A00C3F30A510290401A01904028D1
:100570006BDAC3F3130040F4801B0098924620B15D
:100580000023D2EB030A63EB0B0B01985946C0F131
:1005900040025046FFF7AAFF06460D465046594610
:1005A000019A00F08DF910EB08006141002487EA00
:1005B000115284EAE7731A4340D0009A62B3019A59
:1005C000012A4FEA075215DC001B61EB02014FF0D4
:1005D000004202EA0752CDE90042001C41F58011B9
:1005E00032462B4600F08DF903B0BDE8F08F40464F
:1005F0002146F9E7001B61EB0201001C41F5801365
:1006000000185B412018A2F5001747EB030140EAF0
:10061000D570B6196D4111E06D084FEA360645EA0E
:10062000C0754FEA0752001B61EB0201001C41F547
:10063000801149084FEA30000019514132462B46DB
:1006400003B0BDE8F04F00F04DB900980122400022
:100650000023D0EB020263EBE073009821464FEADF
:10066000E074B8EB000061EB0401E9E783F00043BC
:100670005BE781F0004158E72DE9FE4F81EA030472
:1006800004F0004421F0004100944FF0000B23F0EF
:10069000004350EA01045ED052EA03045BD0C3F386
:1006A0000A54C1F30A552C44A4F2F3340194A0FB7C
:1006B0000254C1F3130141F48011C3F3130343F453
:1006C000801301FB024400FB034E840A970A44EAAC
:1006D000815447EA8357A4FB076802958D0A05FBFE
:1006E00007854FEA932C04FB0C542705029D4FEA23
:1006F000065847EA1637B5EB08056EEB070C870E70
:10070000920E47EA811742EA8312A7FB0201B6EB79
:100710000B0164EB00042B0D43EA0C335E1844EB31
:100720001C50DA465146E7FB0201C5F313044FEAB9
:100730000B3343EA14534FEA0432019C43EA0603A5
:10074000A4F10C040294009CCDE900B400F0D9F8A7
:1007500003B0BDE8F08F00200146F9E72DE9F04D28
:1007600081EA030404F0004B21F0004514464FF0E9
:10077000000A23F0004150EA050220D054EA0102A9
:100780001DD0C5F30A570246C5F31303C1F3130086
:10079000C1F30A5640F4801543F48013A7EB060812
:1007A000101BD64608F2FD3873EB050002D308F1A2
:1007B000010801E092185B41B8F1000F03DA002054
:1007C0000146BDE8F08D00204FF4801106468446B6
:1007D0000EE0171B73EB050705D3121B63EB050334
:1007E00006434CEA010C49084FEA300092185B417D
:1007F00050EA0107EDD152EA030012D082EA040068
:1008000083EA0501084305D0101BAB4106D2012243
:10081000002306E000224FF0004302E06FF00102E7
:1008200053101AEB06004CEB085110EB0A0041EB99
:100830000B01BDE8F04D00F055B8C1F30A52C1F309
:10084000130140F2FF3341F480119A4202DA002092
:100850000146704740F233439A42A2F2334202DC2F
:100860005242FFF752BEFFF741BE000030B5041EF2
:1008700071F1000404DB4FF00044404264EB0101DD
:10088000141E73F1000405DB1C464FF00043524276
:1008900063EB0403994208BF904230BD064C074DFC
:1008A00006E0E06840F0010394E807009847103440
:1008B000AC42F6D3FFF7F4FCD4760A0824770A0892
:1008C000202A06DBCB17203A41FA02F043EAE07314
:1008D00006E041FA02F3D040C2F120029140084301
:1008E0001946704710B5141E73F1000408DA401C55
:1008F00041F1000192185B411A4301D120F001003F
:1009000010BD2DE9F04D92469B4611B1B1FA81F22E
:1009100002E0B0FA80F220329046FFF7E7FD04468D
:100920000F4640EA0A0041EA0B0153465A46084383
:1009300013D0114653EA010019D0C8F140025046C5
:10094000FFF7E3FD05460E46504659464246FFF77F
:10095000CDFD084305D0012004E020463946BDE81E
:10096000F08D0020054346EAE0762C4337430A9891
:100970006305E40AA0EB08000022FD0A44EA47549C
:100980000A3002D500200146E9E701051019694146
:10099000DDE9084500196941BDE8F04DA2E770B5F1
:1009A0008C1810F8015B15F0070301D110F8013B1A
:1009B0002A1106D110F8012B03E010F8016B01F8A1
:1009C000016B5B1EF9D12B0705D40023521E0DD4F9
:1009D00001F8013BFAE710F8013BCB1A921C03E047
:1009E00013F8015B01F8015B521EF9D5A142D8D37F
:1009F000002070BD1EF0040F0CBFEFF30880EFF372
:100A0000098017F077BA000000B587B000BF4548ED
:100A1000006840F00800434908600846006800F09C
:100A20000800019000BF00BF00BF0846006840F00A
:100A3000100008600846006800F01000019000BF38
:100A400000BF00BF0846006840F02000086008466C
:100A5000006800F02000019000BF00BF00BF084602
:100A6000006840F0400008600846006800F0400060
:100A7000019000BF00BF00BF0846006840F0800042
:100A800008600846006800F08000019000BF00BFC9
:100A900000BF0846006840F480700860084600689F
:100AA00000F48070019000BF00BF00BF1D480C38EB
:100AB000006840F480501B490C3908600846006803
:100AC00000F48050019000BF00BF0220039001207D
:100AD0000490032005900C2006904CF23370029095
:100AE00002A911480EF0B4FF4FF68070029002A9DF
:100AF0000E480EF0ADFF40F20320029002A90C4810
:100B00000EF0A6FF4FF47F40029002A909480EF0B4
:100B10009FFF40F2CF60029002A907480EF098FFB5
:100B200007B000BDE0440258000C02580010025803
:100B300000180258001C02580020025810B586B058
:100B4000044641F2883001231C4A4021CDE900408F
:100B50001B4836F05FFA00BF1A48006840F00400F6
:100B6000184908600846006800F00400009000BFC3
:100B700000BF00BF13481430006840F00200114964
:100B8000143108600846006800F00200009000BFC1
:100B900000BF0D4802900020039004902020019097
:100BA00001A90A480EF054FF00220221172010F07C
:100BB00029F8172010F016F806B010BD0004014007
:100BC00000080258E04402580000211100100258A9
:100BD00000B59BB04C2108A8FFF7F5FB1C2101A82C
:100BE000FFF7F1FB1848089018480990042001907D
:100BF000012002900520039003200490022005901C
:100C00000690002007900A9000210B910C91202162
:100C10000D9100210E910F9110914FF4805111917F
:100C200000211291139114911591169101AA01A915
:100C300008A815F0DFFC20B140F2171104A007F05E
:100C4000D8FD1BB000BD000000400052044100521E
:100C50002E2E5C2E2E5C557365725C6273705C7315
:100C600072635C6273705F666D635F6164373630B8
:100C7000362E630000B500F02DF8002222E0134864
:100C800030F8121012484388083020F81310083842
:100C90004088401C80B20E494880B0F5006F01DBEF
:100CA000002048800A488088B0F5006F05DA0848BF
:100CB0008088401C0649888002E001200449887130
:100CC000501CC2B2082ADADB00BD000036810524C0
:100CD000468105241448008800B21449488012480F
:100CE000008801B2114881800F48008801B20F4886
:100CF000C1800D48008801B20C4801810A48008873
:100D000001B20A4841810848008801B20748818140
:100D10000548008801B20548C1810348008801B236
:100D200002480182704700000030006034810524D1
:100D300010B500214FF0807016F0F4F9012108067B
:100D400016F0F0F90121080616F0ECF90121080669
:100D500016F0E8F90121080616F0E4F900214FF039
:100D6000807016F0DFF910BD10B5044644B90020BC
:100D70000749487000214FF0007016F0D3F906E0E3
:100D80000120034948700121400616F0CBF910BD3F
:100D90003481052410B504463B480470072C5CD20E
:100DA000DFE804F05C041322303F4D0000214FF4D3
:100DB000004016F0B7F900214FF4804016F0B2F968
:100DC0000121480316F0AEF95BE000214FF400402A
:100DD00016F0A8F90121880316F0A4F900214FF4B8
:100DE000005016F09FF94CE000214FF4004016F03F
:100DF00099F90121880316F095F90121480316F0AD
:100E000091F93EE00121C80316F08CF900214FF45E
:100E1000804016F087F900214FF4005016F082F957
:100E20002FE00121C80316F07DF900214FF4804026
:100E300016F078F90121480316F074F921E0012138
:100E4000C80316F06FF90121880316F06BF9002131
:100E50004FF4005016F066F913E000BF00200A4975
:100E6000087000214FF4004016F05CF900214FF4A7
:100E7000804016F057F900214FF4005016F052F957
:100E800000BF00BF10BD000034810524402003498D
:100E9000088008800880891E088070471A08025858
:100EA00010B5044600F010F8FFF742FFFFF7EEFF21
:100EB0000020044908804880888088712046FFF718
:100EC0003DFE10BD4681052400B587B042F210708A
:100ED0004FF47A710123134ACDE9001040211248E2
:100EE00036F098F8402010491831088000BF0F48AC
:100EF000006840F004000D4908600846006800F0F2
:100F00000400019000BF00BF002003900490402027
:100F1000029002A904480EF09BFD17200FF040FE3E
:100F200007B000BD0004014000080258E044025828
:100F300000B587B000BF1048006840F040000E497F
:100F400008600846006800F04000019000BF00BF44
:100F5000012003900020049002200590400202909E
:100F600002A906480EF074FD4FF480600349183161
:100F7000088007B000BD0000E04402580018025885
:100F800010B5044624B94FF4035000F045F812E0C0
:100F9000012C04D142F2020000F03EF80BE0022CDA
:100FA00003D1200300F038F805E0032C03D142F20E
:100FB000280000F031F810BD10B5044664B936F0D1
:100FC00037FA4FF000720021100135F069FC4FF440
:100FD00080600549088006E04FF480600249891E60
:100FE000088036F02BFA10BD1A1802582DE9F0418E
:100FF00004464FF08050A4FB00600146054A0023E0
:101000003046FFF796F905462946002000F026F8FD
:10101000BDE8F08180B2E60E10B504460020FFF76F
:10102000CBFF00200B49086021120A4802680068C3
:10103000401C084B18600848815418460268006834
:10104000401C18600448845436F0BAFC0120FFF7B5
:10105000B3FF10BDB407002438A805242DE9F041E2
:1010600005460C46C4F30D06C4F38D3755B906F595
:10107000804188B2FFF7D0FF07F5804188B2FFF7C3
:10108000CBFF09E006F5004188B2FFF7C5FF07F581
:10109000004188B2FFF7C0FFBDE8F08170B505469A
:1010A0000C46C4F30B042DB904F5404188B2FFF798
:1010B000B3FF04E004F5604188B2FFF7ADFF70BDF7
:1010C0002DE9F04104460D460027B8460026206869
:1010D000806800F00C0008B1012000E0002000282A
:1010E0006CD02068C06800F00070F8B1607D012805
:1010F0001CD1207D012819D10C250EE030488642F4
:101100000AD3606D40F010006065A06D40F00100F2
:10111000A0650120BDE8F081761C20680068C0F35E
:1011200080100028EAD0402021680860602D0FD090
:101130002068806800F0040050B12068806800F0EA
:10114000020028B92068806840F01000216888609B
:101150000C2D0FD02068806800F0080050B1206886
:10116000806800F0020028B92068806840F0200004
:1011700021688860602D03D06C2D03D10C2703E01B
:10118000082701E0042700BF00BF0EF087FD80465E
:101190000FE00EF083FDA0EB0800052809D9606D73
:1011A00040F010006065A06D40F00100A0650120D6
:1011B000B0E72068806838400028EAD10020A9E71D
:1011C00000DC0C0070B50546AC6B606D00F05000A3
:1011D000A0BB606D40F4007060652068006800F09E
:1011E0000800B0B12068C06800F4406010BB2068FF
:1011F000C06800F40050E8B9606D20F4807060654C
:10120000606D00F48050A8B9606D40F00100606529
:1012100010E02068C06800F0030058B9606D20F449
:1012200080706065606D00F4805018B9606D40F0AA
:101230000100606520460AF007FF07E0FFE7606DE8
:1012400000F0100010B120460BF0ACF870BD70B586
:101250000546AC6B606D40F040006065A06D40F0ED
:101260000400A06520460BF09DF870BD70B50446E3
:10127000A56B28460AF004FF70BD70B50446002532
:101280002068806800F00300012806D1206800680B
:1012900000F0010008B1012000E0002080B32068C8
:1012A000806800F00D00012800D100E0002050B15E
:1012B00000BF2068806840F0020021688860032039
:1012C0002168086009E0606D40F010006065A06D65
:1012D00040F00100A065012070BD0EF0DFFC054666
:1012E0000FE00EF0DBFC401B02280AD9606D40F0D5
:1012F00010006065A06D40F00100A0650120EBE7E3
:1013000005E02068806800F001000028E9D1002095
:10131000E2E7000070B5044600252068806800F010
:101320000300012806D12068006800F0010008B120
:10133000012000E0002088BB206880681C4908402C
:1013400008B9012000E0002048B9606D40F01000AD
:101350006065A06D40F00100A065012070BD2068AF
:10136000806840F00100216888600EF097FC054617
:1013700015E02068806840F00100216888600EF068
:101380008DFC401B02280AD9606D40F0100060659A
:10139000A06D40F00100A0650120DFE705E02068B6
:1013A000006800F001000028E3D00020D6E700002C
:1013B0003F0000802DE9F04105469446002D4ED1B6
:1013C00000BF00BF00BF00BF00BF40F2D24200EE2E
:1013D000102AB8EE400B9FED231B20EE010BBCEE54
:1013E000C00B10EE102A4FF47A70B2FBF0F0C3B2CB
:1013F00003EB4300C0EBC310A2EBC0004FF0640846
:10140000B0FBF8F0C4B24FF47A7013FB00F004EBB9
:10141000C40808EB041800EB8800101A4FF00A0803
:10142000B0FBF8F6E82013FB00F004EBC40808EB6F
:10143000041800EB880006EB860800EB4800171A3A
:1014400003F13000087004F13000487006F13000FC
:10145000887007F13000C8700420BDE8F0810020DA
:10146000FBE700009A9999999999E93F38B50446A4
:101470000D461D480470457000F04AF900F0C2F8AE
:1014800000F04CF906208DF8000008208DF80100CE
:10149000002040EA4400C0B28DF802001348405DCD
:1014A0008DF80300802012490880502000F0BCF81D
:1014B000032000F0B9F89DF8000000F0B5F89DF8A1
:1014C000010000F0B1F89DF8020000F0ADF89DF8C1
:1014D000030000F0A9F880200549891E0880322009
:1014E00034F02CF938BD000090A60524CE53040832
:1014F0001A08025810B50A2034F020F910BD002057
:1015000001E0411C88B20A28FBDB704710B51A497C
:1015100091F8240000F0B2F8052034F00FF9FC2017
:1015200000F028F9052034F009F9002000F022F934
:10153000192034F003F9104890F8240020B900F085
:101540001DF80D49086209E000F018F80A4991F801
:101550002410491E084A121D42F82100064890F83E
:101560002400401CC0B2044981F82400082802DB92
:10157000002081F8240010BD90A6052410B5002499
:1015800080200E490880012000F04EF8FFF7B2FFDE
:1015900000F016F8040400F013F804EB002400F047
:1015A0000FF8044480200549891E088004F40000D7
:1015B00008B1A4F18074204610BD00001A0802583A
:1015C00070B50024FFF79BFF002514E010200C49A4
:1015D0000883FFF794FF6006040E10200849488333
:1015E0000846006900F0200008B1601CC4B2FFF793
:1015F00086FF681CC5B2082DE8DB204670BD0000E0
:101600000000025810B5082006490880052034F073
:1016100095F808200349891E0880052034F08EF8CB
:1016200010BD00001A08025870B50446FFF767FFA6
:10163000FFF765FF00251AE004F0800020B14FF4A9
:1016400080600C49088004E04FF480600949891CDF
:101650000880102008490883FFF751FF6006040E38
:10166000102005494883FFF74AFF681CC5B2082DC2
:10167000E2DB70BD181802580000025810B504468D
:10168000072C00DD10BD082040EA0410C1B2012083
:1016900000F080F800BFF5E700B587B000BF18483C
:1016A000006840F00400164908600846006800F031
:1016B0000400019000BF00BF124803900020049076
:1016C0004020029002A910480EF0C2F90022022127
:1016D00017200FF097FA17200FF084FA00210B4A19
:1016E00082F82410002006E000220849091D41F874
:1016F0002020411CC8B20828F6DB07B000BD00005E
:10170000E0440258000021110008025890A6052468
:1017100010B517200FF044FA10BD000010B50024DA
:1017200006E00948006800F0400000B903E0641CCE
:1017300006488442F5D300BF0448844202D304A083
:1017400032F07EFF10BD000010080258005A6202FD
:10175000414453313235365F5761697444524459BC
:1017600028292054696D65204F7574202E2E2E0D6A
:101770000A00000010B50446802005490880204674
:10178000FFF752FF80200249891E088010BD00002B
:101790001A08025870B504460D4680200849088092
:1017A00044F05000FFF740FF0020FFF73DFF2846C0
:1017B000FFF73AFF80200249891E088070BD0000B3
:1017C0001A0802580148006870470000F807002412
:1017D0002DE9F041B0B00446884616461D46280261
:1017E0005B49B1FBF0F74FF4807001900120169037
:1017F0002621049101210591069140F2AD1103913A
:101800001920029001A811F087FA20B14FF48E61DF
:1018100050A006F0EEFF012C01D0032C47D1002090
:10182000554981F88D0055480860084600680068F1
:1018300020F480300968086000204F49486000218A
:101840004D4881604FF40051016100214161076200
:1018500001218161C5610021016446648164C16424
:1018600020204549086510214348416509038165E9
:101870000021C1654FF48021016600203E49486681
:1018800040213D4881660221C1660321016712F0B3
:10189000F3FF20B140F2A4412EA006F0AAFF364883
:1018A0000068006840F48030334909680860012C02
:1018B0004BD0022C49D00020314981F88D002F48AF
:1018C0002030086008460068006820F4803009680D
:1018D000086003202A4948600121294881600021CD
:1018E00001614FF400214161076201218161C561FD
:1018F00000210164466481640121C16420202049E3
:10190000086510211E484165090381650021C165F4
:101910004FF480210166002019494866402118488B
:1019200081660221C1660321016712F0A5FF20B183
:1019300040F2E14107A006F05CFF11480068006832
:1019400040F480300E490968086030B0BDE8F0818D
:101950000044AC002E2E5C2E2E5C557365725C62CA
:1019600073705C7372635C6273705F6932635F771C
:101970006D383937382E6300C0DA05240458014029
:10198000CCDB05242DE9F0472DED068B06460F46EE
:1019900015469846002447E004FB07F000EE100AC5
:1019A000B8EE400B9FED251B20EE011B00EE105AF8
:1019B000B8EE400B81EE002BB0EE42ABB0EE4A0B1E
:1019C00032F0AEFE9FED1F1B20EE018B78086043C6
:1019D00000EE100AB8EE400B9FED181B20EE011B25
:1019E00000EE105AB8EE400B81EE002BB0EE42AB89
:1019F000B0EE4A0B32F094FE9FED121B20EE019BDD
:101A0000BDEEC80B10EE100A0FFA80F9600026F840
:101A10001090BDEEC90B10EE100A0FFA80F96000AD
:101A2000401C26F81090641C4445B5D30748C0F804
:101A30000080BDEC068BBDE8F08700006E861BF0D1
:101A4000F9210940000000000000A940F807002427
:101A500070B504460D461348046013480560002025
:101A600007E01049096831F81010104A22F81010E8
:101A7000401CB0F5805FF4DB4FF480500C490860E7
:101A80004FF0FF300B4908804FF4805207490A4855
:101A900013F04EFA20B140F21C5108A006F0A9FE46
:101AA000002070BDE4070024EC070024E0DC0524DE
:101AB000E8070024E2070024C0DA05242E2E5C2E5D
:101AC0002E5C557365725C6273705C7372635C62EA
:101AD00073705F6932635F776D383937382E630012
:101AE00070B500246448007801282BD10020624999
:101AF000087024F091FC002019E060490968604AF0
:101B0000126891420DD25D490A680968491C5B4B15
:101B100019605C49096831F812105B4A22F810100C
:101B200004E00021584A22F810100124401CB0F5AE
:101B3000006FE2DB5048007820B140F2495153A0D9
:101B400006F057FE4C48007802282ED100204A4962
:101B5000087024F061FC00201CE048490968484AEC
:101B60001268914210D245490A680968491C434BE2
:101B700019604449096831F812108AB2424B00F5E5
:101B8000006123F8112004E000213F4A22F81010E0
:101B90000124401CB0F5006FDFDB3748007820B12E
:101BA00040F2675139A006F024FE012C01D100F06B
:101BB000C1F800243E480078012828D100203C4983
:101BC000087024F029FC002016E03A4909683A4AD6
:101BD000126891420ED2394931F810100AB23549D3
:101BE0000B680968491C334D29603549096821F89B
:101BF000132000E00124401CB0F5006FE5DB2C4809
:101C0000007820B140F28D5120A006F0F2FD284866
:101C1000007802282AD100202549087024F0FCFB16
:101C2000002018E023490968234A1268914210D223
:101C3000224A00F5006132F811100AB21D490B6802
:101C40000968491C1B4D29601D49096821F81320AA
:101C500000E00124401CB0F5006FE3DB144800787D
:101C600020B140F2A95109A006F0C3FD012C01D119
:101C700000F060F870BD0000E0070024E8070024D1
:101C8000EC070024E4070024E0DC05242E2E5C2E63
:101C90002E5C557365725C6273705C7372635C6218
:101CA00073705F6932635F776D383937382E630040
:101CB000F0070024F8070024FC070024E0FC0524BA
:101CC000F407002470B505460C460B4805600B4828
:101CD000046000200A4908600A4908704FF48052E5
:101CE00009490A4813F0B0F820B140F2E35108A0C6
:101CF00006F07FFD002070BDF4070024FC070024DF
:101D0000F8070024F0070024E0FC0524CCDB0524C0
:101D10002E2E5C2E2E5C557365725C6273705C7344
:101D200072635C6273705F6932635F776D383937F5
:101D3000382E630010B5194800681949884205D14A
:101D400045200EF02DFF15480BF0ECFB1548006800
:101D50001549884207D113480068006820F4803094
:101D6000104909680860114800680D4930398842F7
:101D700005D13C200EF014FF0C480BF0D3FB0C48AF
:101D8000006809492031884207D109480068006885
:101D900020F4803006490968086010BD54DB052432
:101DA000A0040240C0DA05240458014060DC052488
:101DB000CCDB052401282DD161B92E4A1268127E90
:101DC000002A13DD2B4A1268127E521E294B1B6813
:101DD0001A760BE0274A1268127E052A06DA254A8F
:101DE0001268127E521C234B1B681A76214A126815
:101DF000127E214B53F832201E4B1B68DA611D4ABC
:101E00001268127E1C4B03EBC2029288194B1B68AE
:101E10009A842EE002282CD161B9164A1268527EAB
:101E2000002A13DD134A1268527E521E114B1B68A2
:101E30005A760BE00F4A1268527E052A06DA0D4ADE
:101E40001268527E521C0B4B1B685A76094A126864
:101E5000527E094B53F83220064B1B681A62054A22
:101E60001268527E044B03EBC2029288014B1B683E
:101E7000DA84704794000024344B040870B504469B
:101E80000D462946204600F06FFF012800D070BDA6
:101E9000062221A12046FEF7DEFA20B92946204677
:101EA00038F05EFF35E006221DA12046FEF7D3FA8A
:101EB00020B92946204639F0D9F82AE006221AA18D
:101EC0002046FEF7C8FA20B92946204639F02CF9F9
:101ED0001FE0062216A12046FEF7BDFA20B92946CA
:101EE000204639F09FF914E0062213A12046FEF7A0
:101EF000B2FA20B92946204639F088FA09E00622CC
:101F00000FA12046FEF7A7FA18B92946204639F056
:101F100003F800BFBBE7000047504747412C0000D3
:101F200047504753412C000047504753562C000060
:101F30004750524D432C000047505654472C000048
:101F40004750474C4C2C000010B5ADF5006D68466D
:101F500005F0A4FEC4B214B90DF5006D10BD5E48C5
:101F6000007801280DD1012C13D101225BA1684614
:101F7000FEF771FA68B940F21451684605F0AEFFF9
:101F800007E055480078022803D1022154A005F04B
:101F9000A5FF062C0ED1062252A16846FEF75BFA79
:101FA00040B901204C49087040F21451684605F0D0
:101FB00095FF8FE0062C0DD106224CA16846FEF756
:101FC0004AFA38B9022146A005F088FF02204249AA
:101FD00008707FE0042C09D1042246A16846FEF770
:101FE0003AFA18B900203C49087073E0072C38D140
:101FF000072242A16846FEF72EFA38B9012034F0D4
:1020000094FD072140A005F069FF63E0072240A18D
:102010006846FEF720FA38B9022034F086FD072121
:102020003EA005F05BFF55E007223EA16846FEF7A3
:1020300012FA38B9032034F078FD07213CA005F0EE
:102040004DFF47E007223CA16846FEF704FA00284E
:1020500040D1042034F069FD07213AA005F03EFF8D
:1020600038E0082C36D1082238A16846FEF7F3F98B
:1020700038B9012034F03BFD082137A005F02EFFD0
:1020800028E0082237A16846FEF7E5F938B90220B2
:1020900034F02DFD082136A005F020FF1AE00822BB
:1020A00036A16846FEF7D7F938B9032034F01FFD92
:1020B000082135A005F012FF0CE0082235A1684682
:1020C000FEF7C9F930B9042034F011FD082134A01D
:1020D00005F004FF00BF3FE77B040024410000003F
:1020E0004F4B0000747874657374000072787465E7
:1020F0007374000073746F70000000006C65646F8F
:102100006E203120000000006C656431206F6E008D
:102110006C65646F6E203220000000006C656432D4
:10212000206F6E006C65646F6E203320000000002D
:102130006C656433206F6E006C65646F6E203420B4
:10214000000000006C656434206F6E006C65646F85
:1021500066662031000000006C656431206F6666A1
:10216000000000006C65646F6666203200000000AD
:102170006C656432206F6666000000006C65646FF9
:1021800066662033000000006C656433206F66666D
:10219000000000006C65646F66662034000000007B
:1021A0006C656434206F6666000000002DE9FE4F08
:1021B00000208DF8000043480088B0F5F07F06D17C
:1021C00041484249098800EBC100C08805E0404809
:1021D0003E49098800EBC100C088ADF8020049F60D
:1021E0009910ADF804000120ADF8060035480088CC
:1021F000502190FBF1F0C5B23648008828384621BE
:1022000090FBF1F0C7B215FB07F03349087015FBDE
:1022100007F01B2191FBF0F0401C30490870691E4B
:1022200001EB8101274A1288A2EB0111A1F13000D4
:1022300000EBD071C1F34F0A4FF0190B284800781A
:1022400010FB05F0784384B25646D8464FF000099B
:1022500032E05646C9EBC90000EB80000BEB4000B2
:102260001FFA80F8002002901BE01E4800EB44108B
:1022700046801C4800EB4410A0F80480194901EB8B
:102280004410002269461DF092FD601C84B21C2C93
:1022900000DB09E006F1500086B20298401CC0B293
:1022A00002900298A842E0DB00BF1C2C00DB05E096
:1022B00009F1010000F0FF09B945CADB00BFBDE824
:1022C000FE8F000014070024204C04083204002470
:1022D000404C0408120700242A0400242904002486
:1022E00028040024A800002410B50122114605206E
:1022F00000F080F810BD000010B500F0A5F8012036
:102300000149087310BD000030A405241CB53148F4
:10231000007830B12F48808818B12E48007B012802
:1023200000D11CBD2B484078E8B92A488088002895
:102330004DDD28480089401C80B226490881498823
:10234000884244DB002040F2DC510123224ACDE9DF
:1023500000101946214834F05DFE00201D49088117
:102360000120487033E01B48407801282FD11948DC
:102370000089401C80B2174908818988884226DB81
:102380001448C088002812DD12484089401C80B2E1
:1023900010494881C988884202DB00200D49087035
:1023A0000C48007818B900200A498880B9E7002055
:1023B00008490881487041F2883040F2DC5101231D
:1023C000054ACDE900101946044834F023FE00BF49
:1023D000A7E7000030A40524000C004000000258CC
:1023E00010B500F031F800200149087310BD00005D
:1023F00030A405247CB504460D4616461CB10F4892
:10240000007B012800D17CBD0C4844808580C680BB
:1024100000200A490881488148700120087041F273
:10242000883040F2DC510123054ACDE900101946FD
:10243000044834F0EFFD00BFE5E7000030A40524B8
:10244000000C0040000002581CB50020094908702B
:102450000846808810B10846C08850B9002040F274
:10246000DC510123044ACDE900101946034834F039
:10247000D1FD1CBD30A40524000C00400000025812
:1024800010B504461F2C01DC1F2402E0FE2C00DBEB
:10249000FE240B48047001460978402202EB6110CB
:1024A00000F07BF80649097801F01F0101F1600096
:1024B00000F073F80348007800F006F810BD000043
:1024C000080700240907002410B50446012C06D192
:1024D000102000F062F801200A49087010E0022C78
:1024E00006D1112000F059F802200649087007E0D3
:1024F000032C05D1132000F050F803200149087087
:1025000010BD00000907002410B52DED028B00F06E
:102510002BF8044604EB840000EB800101EB8010F3
:1025200000EE100AF8EEC00A0D48007800EB4000FB
:10253000400000EE100AB8EEC00A80EE801AB0EE3D
:10254000418A08480078022805D1B0EE000AC8EE9A
:10255000000AB0EE608AB0EE480ABDEC028B10BDF6
:10256000080700240907002470B53AF0D1F9472084
:102570003AF0A2F93AF0FEF93AF07CF904463AF062
:1025800025F93AF077F905463AF05EF93AF0DAF9CA
:1025900005EB042086B2304670BD10B504463AF013
:1025A000B7F946203AF088F93AF0E4F920463AF0D3
:1025B00083F93AF0DFF93AF0C5F910BD2DE9F041A1
:1025C00004463AF0A5F9EE203AF076F93AF0D2F95D
:1025D00020463AF071F93AF0CDF93AF099F9EF2046
:1025E0003AF06AF93AF0C6F93AF044F905463AF099
:1025F000EDF83AF03FF906463AF026F93AF0A2F93A
:1026000006EB052087B23846BDE8F0812DE9F041A0
:1026100004463AF07DF9EE203AF04EF93AF0AAF984
:1026200020463AF049F93AF0A5F93AF071F9EF206D
:102630003AF042F93AF09EF93AF01CF905463AF0C0
:10264000C5F83AF017F906463AF0C0F83AF012F930
:1026500007463AF0F9F83AF075F9280400EB06203D
:1026600000EB07084046BDE8F08100002DE9FF5F60
:102670002E21F42000F0B6F800F092F8F620FFF7D3
:102680009DFF03904448807D342202EB8010C1B24C
:10269000F42000F0A7F800F083F8F620FFF7B6FF6B
:1026A0003D49897DC1F10801C84001903A484189FE
:1026B0000398401A384909894843C4133648B0F989
:1026C0001200C0023449B1F91410214490FBF1F614
:1026D00004EB060909F10800001102902E49029846
:1026E0008861A9F57A670846B0F90E0007FB07F183
:1026F0004843C4152848B0F902007843C61204EBD9
:10270000060A2548B0F900000AEB80002249897DBD
:102710008840801C801000901F48B0F90400784366
:1027200044131D48B0F90C0007FB07F10913484397
:102730000614A019801C4FEAA00A1748C0880AF5A1
:10274000004148434FEAD03BDDE90010401A1249EE
:102750008A7D4CF25031114100FB01F8B8F1004F75
:1027600004D24FEA4800B0FBFBF502E0B8FBFBF0F7
:102770004500281200FB00F440F6DE3060430414EC
:10278000064868430614A01900F6CF6005EB201533
:102790000148C561BDE8FF9F90A1052443E3FFFF09
:1027A00010B50F48807D18B9062032F0A5FF16E05D
:1027B0000B48807D012803D1092032F09DFF0EE0F7
:1027C0000748807D022803D10F2032F095FF06E0F4
:1027D0000348807D032802D11B2032F08DFF10BDFD
:1027E00090A1052470B505460C463AF091F8EE200C
:1027F0003AF062F83AF0BEF828463AF05DF83AF05E
:10280000B9F820463AF058F83AF0B4F83AF09AF8A5
:1028100070BD704710B504462146024812F0C6FD4F
:1028200010BD000040A4052410B5044812F0D1FDED
:10283000042801D0012010BD0020FCE740A405249D
:1028400010B5002410481149086002210F48416169
:102850000021816000200D49486000210B48016182
:102860004FF48041C16000F013F8012801D002202C
:1028700010BD0021054800F013F8044812F044FF91
:1028800000B101242046F3E70070005240A4052463
:1028900008B50120009000909DF8000008BD0000E0
:1028A00030B587B004460D4600BF3148006840F49B
:1028B00080302F4908600846006800F4803001909D
:1028C00000BF00BF00BF2A480C30006840F0020083
:1028D00027490C3108600846006800F002000190AA
:1028E00000BF00BF00BF0846006840F00400086059
:1028F0000846006800F00400019000BF00BF00BF60
:102900000846006840F0080008600846006800F0CB
:102910000800019000BF00BF022003900020049037
:10292000032005900C2006904FF4F850029002A965
:1029300010480DF08DF80420029002A90E480DF009
:1029400087F80B485838006840F4803008495839F7
:1029500008600846006820F48030086000220521E5
:1029600031200EF04FF931200EF03CF907B030BDA8
:10297000D444025800080258000C0258F8B5044626
:102980000D4616461F4633462A4621460448009700
:1029900012F060FF08B90020F8BD0120FCE700003C
:1029A00040A4052470B504460D46164633462A4613
:1029B0002146044813F064F808B9002070BD0120D6
:1029C000FCE7000040A4052401200149086070478D
:1029D0003C090024F8B504460D4616461F4633460A
:1029E0002A4621460448009713F0E0F808B9002071
:1029F000F8BD0120FCE7000040A4052470B50446A2
:102A00000D46164633462A462146044813F0EAF995
:102A100008B9002070BD0120FCE7000040A4052497
:102A200001200149086070473809002401460A293D
:102A300003DA01F13000C0B27047102903DA01F166
:102A40004100C0B2F8E70020F6E700BFFEE7000053
:102A500000B587B000BF5848006840F001005649F3
:102A600008600846006800F00100019000BF00BF48
:102A700000BF081D006840F00100091D08600846FD
:102A8000006800F00100019000BF00BF00BF0846D1
:102A9000006840F0020008600846006800F002008C
:102AA000019000BF00BF00BF0846006840F004006E
:102AB00008600846006800F00400019000BF00BFF5
:102AC00000BF0846006840F008000860084600683B
:102AD00000F00800019000BF00BF00BF084600687A
:102AE00040F0100008600846006800F010000190F7
:102AF00000BF00BF00BF0846006840F0400008600B
:102B00000846006800F04000019000BF00BF0220AE
:102B100003900020049005900D2006905020029014
:102B200002A926480CF094FF8020029002A92448B4
:102B30000CF08EFFC020029002A922480CF088FF02
:102B40000820029002A920480CF082FF7020029019
:102B500002A91E480CF07CFF4FF44060029002A9CD
:102B60001B480CF075FF1B481B490860002048609B
:102B70002021194881608021C160002101614FF44A
:102B80008071416100218161016241628162C162A3
:102B900001630AF08FF920B14FF4AA710FA005F07C
:102BA00028FE002211464E200EF02CF84E200EF08A
:102BB00019F807B000BD0000DC44025800000258BC
:102BC0000004025800080258000C02580010025875
:102BD0000018025800000248A0D905242E2E5C2EB1
:102BE0002E5C557365725C6273705C7372635C62B9
:102BF00073705F63616D6572612E630038B5044662
:102C00004FF4FA612046FDF7DEFB224822490860B6
:102C10004B204860002120488160C1604FF48061F2
:102C2000016189004161890081618911C1610021CF
:102C3000016241620AF030FF20B140F2911117A009
:102C400005F0D7FD00BF14481C49886408461249A6
:102C5000886300BF00BF1A48006840F001001849AF
:102C600008600846006800F00100009000BF00BF47
:102C7000002211462F200DF0C5FF2F200DF0B2FFCE
:102C8000104B224602210D480AF074F900200E492B
:102C9000087038BDB8000240F0D905242E2E5C2EF5
:102CA0002E5C557365725C6273705C7372635C62F8
:102CB00073705F63616D6572612E6300A0D9052436
:102CC000D844025880960200D107002410B502486B
:102CD0000AF0C6F910BD0000A0D9052410B523F0F4
:102CE00027FC23F0D7FB10BD70B502460C46FF252C
:102CF000FF2309E012F8010B80EA05010648405C59
:102D000080EA03050548435C201EA4F10106B4B225
:102D1000F0D143EA052070BD90500408905104089A
:102D20002DE9F05F81460C4692469B46ABEB0401D1
:102D30000A98A0EB090081FB00700146AAEB09008C
:102D4000C31705462A463846FDF7F3FA0019BDE8D1
:102D5000F09F70B50446049D581A2E1B7043161B35
:102D600090FBF6F0084470BD7CB505460E46032E78
:102D700001DA00207CBDF01E285C2A2801D000204A
:102D8000F8E7002409E0285D00F0800008B9285D1C
:102D900008B90020EEE7601C84B2F01EA042F2DC0D
:102DA00028780190012406E0285D9DF80410484031
:102DB0000190601C84B2F01EA042F5DC022269463C
:102DC00001A815F02BFEB11E481902226946FDF735
:102DD00042FB08B90120CDE70020CBE738B5044617
:102DE0004FF49873F9220821642000941DF07FF9B4
:102DF00038BD0000014609B90F487047012901D1CB
:102E00000E48FAE7022901D10D48F6E7032901D15E
:102E10000020F2E7042901D10020EEE7052901D1C5
:102E20000848EAE7062901D10020E6E7072901D191
:102E30000020E2E70020E0E70010014000440040ED
:102E4000004800400014014010B504460CB9124877
:102E500010BD012C01D11148FAE7022C01D1104814
:102E6000F6E7032C01D10020F2E7042C01D1002069
:102E7000EEE7052C01D10B48EAE7062C01D1002032
:102E8000E6E7072C01D10020E2E74FF48E7106A09F
:102E900005F0AFFC0020DBE7005005242C5805248A
:102EA00064600524906805242E2E5C2E2E5C5573DC
:102EB00065725C6273705C7372635C6273705F7581
:102EC0006172745F6669666F2E63000038B50446F0
:102ED0004CF2F8034FF6E852322164200094FFF7D9
:102EE0001FFF0546002D00DA0025284638BD0000EA
:102EF00010B5044664B934F09BFA002211464FF035
:102F0000005033F0CDFC4FF480600549088006E0A6
:102F10004FF480600249891E088034F08FFA10BD9A
:102F20001A18025810B5044664B934F081FA002228
:102F300011464FF0005033F0B3FC0121042014F08F
:102F4000F1F805E00121042014F0ECF834F076FAF1
:102F500010BD000070B504460E4635461CB9002071
:102F6000FFF7C6FF02E00020FFF7DCFF0020134957
:102F70000860C5F30741114802680068401C0F4B08
:102F800018600F488154C5F307211846026800688D
:102F9000401C18600A488154184602680068401CAA
:102FA00018600748855434F00BFD1CB90120FFF769
:102FB0009FFF02E00120FFF7B5FF70BDB4070024BA
:102FC00038A8052438B504464FF6E8534CF2F80209
:102FD000642132200094FFF7A3FE38BD38B50446C3
:102FE000054B4FF6FF72594200200094FFF798FE00
:102FF0000546284638BD0000A086010010B50446ED
:1030000064B934F015FA002211464FF0005033F045
:1030100047FC4FF480600549088006E04FF480606B
:103020000249891E088034F009FA10BD1A180258A6
:1030300070B504460D4624B945F4C01000F016F8EA
:1030400005E0012C03D145F4C81000F00FF870BD65
:1030500038B504464FF6FF73034A002150420094EE
:10306000FFF75EFE38BD0000A086010010B50446E3
:103070000020FFF7C3FF002010490860C4F3074198
:103080000E4802680068401C0C4B18600C488154C4
:10309000C4F30721184602680068401C18600848FD
:1030A0008154184602680068401C18600448845423
:1030B00034F086FC0120FFF7A1FF10BDB407002407
:1030C00038A8052470B50446A56B284609F08EFD86
:1030D0000120287170BD70B50446A56B284609F023
:1030E000DBFC0120287170BD70B50546AC6B206912
:1030F00040F004002061204609F08CFD0120207181
:1031000070BD70B50546AC6B206940F004002061CD
:10311000204609F0C3FC0120207170BD70B5044643
:10312000A56B284609F063FD70BD70B50446A56B1C
:10313000284609F0B2FC70BD70B50546AC6BA06CBA
:10314000406D022806D0012084F83500E06C40F084
:103150004000E064204609F051FE70BD70B506469F
:103160000025B46BA06B68B3A06C0068006800F425
:103170000025A06B00F0010078B975B1A06C006863
:10318000C568E26B082303FB02510022A06C0AF021
:1031900001F8A06B401EA0632FE0A06C00680068DF
:1031A00000F4002048BBA06C00680569E26B0823AE
:1031B00003FB02510122A06C09F0ECFFA06B401E42
:1031C000A0631AE0A06C0068006800F4002020B141
:1031D000D4E911010968C8600FE0A06C00680068BC
:1031E00000F4002048B9656CE06B042101FB00503D
:1031F000A16C09680861206CA063A06B216C8842F7
:103200000ED12068C06840F001002168C8602068C5
:10321000006800F00200022802D1012084F8350085
:1032200070BD000010B5044809F0EAFDFFF74EFD3F
:1032300001200249087010BDA0D90524D10700243F
:1032400070B5002500262AE06806050E00240AE075
:103250001648006800F0020000B106E00A2032F0D3
:103260006DFA601CC4B20A2CF2DB00BF0A2C00DB32
:1032700019E000240AE00D48006800F0020000B9DF
:1032800006E00A2032F05AFA601CC4B20A2CF2DBC3
:1032900000BF032C01DD681CC5B2701CC6B2082E2D
:1032A000D2DB284670BDFF20FCE700001004025866
:1032B0002DE9F0410446022034490880142032F000
:1032C0001BFA02203149891E08800F2032F036FA9D
:1032D00000250BE02D480A38006800F0020000B914
:1032E00006E00A2032F02AFA681CC5B20A2DF1DB8A
:1032F00000BF0A2D00DB46E000250BE023480A381A
:10330000006800F0020000B106E00A2032F016FA70
:10331000681CC5B20A2DF1DB00BF0A2D00DB32E0CC
:1033200000250BE019480A38006800F0020000B9D7
:1033300006E00A2032F002FA681CC5B20A2DF1DB61
:1033400000BF0A2D00DB1EE0002604E0FFF778FF37
:10335000A055701CC6B2052EF8DB642032F0EEF9E1
:10336000207861780844A1780844E1780844C7B21D
:103370002079B84206D1A07860712078A071012030
:10338000BDE8F08100BF0020FAE700001A040258EF
:1033900038B50446002000906A4601216369206820
:1033A0009847002802DA6FF0040038BD6A46012110
:1033B000636920689847002802DA6FF00400F4E798
:1033C000009800F0040008B90120EEE76A460021E9
:1033D000636920689847002802DA6FF00400E4E788
:1033E000009800F48050B0F5805F1FD0009800F482
:1033F0000050B0F5005F07D1009800F48070B0F580
:10340000807F01D10220D0E7009800F40050B0F591
:10341000005F01D10320C8E7009800F48070B0F588
:10342000807F01D10420C0E70520BEE76A46112154
:10343000636920689847002802DA6FF00400B4E757
:10344000009800F00F00082801D00620ADE7009892
:1034500000F47040B0F5004F01D10220A5E70098BC
:1034600000F47040B0F5804F01D103209DE7009833
:1034700000F47040B0F5005F01D1042095E705200D
:1034800093E7F8B504460026002000900025606808
:10349000002837D1A06808B1A068804701202060CB
:1034A000002D2FD14FF40042002123692068984756
:1034B000002825DB6A4600216369206898470028B8
:1034C0001BDBA0698047064611E0A0698047801B8E
:1034D000B0F5FA7F09D86A460021636920689847E9
:1034E000002804DA6FF0040506E06FF0010500988B
:1034F00000F400400028E8D104E06FF0040501E08A
:103500006FF003055DB9A0698047064600BFA0695A
:103510008047801BB0F5FA6FF9D90120606028461A
:10352000F8BD02462AB1C86818B1886808B10869B0
:1035300010B94FF0FF307047086890604B68D36057
:10354000CB6853618B6813610B6993610020F2E7CC
:1035500000B587B000BF4848006840F00800464901
:1035600008600846006800F00800019000BF00BF36
:1035700000BF0846006840F0100008600846006878
:1035800000F01000019000BF00BF00BF08460068B7
:1035900040F0200008600846006800F0200001901C
:1035A00000BF00BF00BF0846006840F04000086050
:1035B0000846006800F04000019000BF00BF00BF57
:1035C0000846006840F0800008600846006800F087
:1035D0008000019000BF00BF00BF0846006840F4B3
:1035E000807008600846006800F48070019000BF99
:1035F00000BF00BF20480C38006840F480501E49CE
:103600000C3908600846006800F48050019000BF43
:1036100000BF0220039001200490032005900C209D
:1036200006904CF23370029002A914480CF010FA84
:103630004FF68070029002A911480CF009FA40F28E
:103640000320029002A90F480CF002FA4FF47F40C9
:10365000029002A90C480CF0FBF940F2CF600290F6
:1036600002A90A480CF0F4F90120029002A90848C6
:103670000CF0EEF907B000BDE0440258000C02580F
:103680000010025800180258001C0258002002586E
:103690000014025800B59BB04C2108A8FCF793FE1B
:1036A0001C2101A8FCF78FFE1848089018480990C3
:1036B0000420019001200290022003900320049036
:1036C000022005900690002007900A9000210B919F
:1036D0000C9120210D9100210E910F9110914FF42A
:1036E000805111910021129113911491159116910D
:1036F00001AA01A908A812F07DFF20B14FF44D7175
:1037000004A005F076F81BB000BD00000040005298
:10371000044100522E2E5C2E2E5C4C696272617246
:103720006965735C7549505C646D393030305C6438
:103730006D396B5F7569702E6300000010B502492A
:10374000C86C09F083FF10BD201D062410B5024887
:1037500009F07CFF10BD0000F0D905242DE9F047E9
:1037600007460C4615461E46DDE9088938461CF01A
:103770008EFD82460E480F4908600846C0F8389012
:10378000C463C0F84080C0F834A0304665F31F40E1
:1037900048640846006840F00100086000BF054822
:1037A000006800F001000028F9D1BDE8F0870000B2
:1037B000000203000010005210B50249C86C09F065
:1037C00045FF10BD841D062410B50349D1F88000C3
:1037D00009F03CFF10BD0000CCDB052410B5024908
:1037E000C86F09F033FF10BDC0DA05240146087820
:1037F00010381823B0FBF3F20848805CC865032A30
:1038000005D908686FF30900001D886503E00868A2
:103810006FF309008865886D70470000785C0408C4
:1038200010B500210268174B9A4213D8154B8C3BF8
:103830009A420FD30378083B1424B3FBF4F1124BE4
:1038400003EB81030366104B8033436601238B40F7
:10385000836616E00378103B1824B3FBF4F10B4B9E
:103860009A4204D8094BA83B9A4200D30831084B2E
:1038700003EB81030366064B8033436601238B40D1
:10388000836610BD9454025800580258B804024090
:103890000008024010B502680179E9B108291BD877
:1038A0000E4B9A420CD80D4B8C3B9A4208D34B1EC0
:1038B0000B4C04EB8303C366094B4033036707E0FB
:1038C0004B1E084C04EB8303C366064B403303676F
:1038D0004B1E01249C40446710BD000094540258C4
:1038E0000059025800090240014600208A69D2B9F5
:1038F0008A6A32B1012A0DD0022A03D0032A10D1DC
:103900000EE000BFCA6A02F08072B2F1807F00D17F
:10391000012007E0CA6AB2F1C07F00D1012001E0B6
:1039200000E000BF36E08A69B2F5005F1BD18A6A09
:1039300032B1012A07D0022A03D0032A11D10AE0AA
:1039400000BF01200EE0CA6A02F08072B2F1807FEF
:1039500000D1012006E0CA6AB2F1C07F00D1012087
:1039600000E000BF16E08A6A32B1012A05D0022ABF
:1039700004D0032A0CD103E000BF00BF012008E0FF
:10398000CA6A02F08072B2F1807F00D1012000E0AB
:1039900000BF00BF704710B5046863608468402CA6
:1039A00004D10468A2600468E16003E00468A160D7
:1039B0000468E26010BD0000F0B5846DD0E91965BF
:1039C0007560C56E15B1D0E91C657560244E05683B
:1039D000B54205D3234E0568B54201D8012500E064
:1039E0000025CDB190F85C603F25B540A560056825
:1039F0002D6825F480250668356005686B6085684C
:103A0000402D04D10568AA600568E96026E00568D4
:103A1000A9600568EA6021E0134E0568B5421DD330
:103A2000114E8C360568B54218D80F4D2D1F2D68E4
:103A300090F85C700126BE4035430B4E361F356052
:103A400005686B608568402D04D10568AA6005682B
:103A5000E96003E00568A9600568EA60F0BD000060
:103A600010000240B80402400854025870B5002407
:103A700000251AE0641002200E490880032031F06E
:103A80005DFE02200B49891E0880032031F056FE9E
:103A900008480A38006800F0020008B144F08004C9
:103AA0003C2031F04BFE681CC5B2082DE2DB2046FD
:103AB00070BD00001A04025870B5054600F032F8D7
:103AC00008B9002070BD332000F07EF8002404E027
:103AD000FFF7CCFF2855601CC4B2082CF8DB00F0BF
:103AE00021F80120EEE770B500F01CF808B90020BD
:103AF00070BDCC2000F068F8442000F065F800F0BC
:103B000011F8CC2000F060F8BE2000F05DF8FFF75F
:103B1000ADFF0546FFF7AAFF044645EA042000B2C0
:103B2000E6E7000070B5012080F3108800BF002593
:103B300038E00220234908804FF4027031F0FEFD86
:103B400002202049891E08800F2031F0F7FD002453
:103B50000BE01C480A38006800F0020000B906E0DB
:103B60000A2031F0EBFD601C84B20A2CF1DB00BFAF
:103B70000A2C00DB14E000240BE012480A3800682D
:103B800000F0020000B106E00A2031F0D7FD601C11
:103B900084B21E2CF1DB00BF1E2C00DB00E003E032
:103BA000681CC5B2012DC4DB00BF002080F3108863
:103BB00000BF052031F0C2FD012D01DB002070BDEA
:103BC0000120FCE71A04025870B5044600251BE0EA
:103BD00002200F49088031F0B1FD04F0010020B14E
:103BE00002200B49891E088002E002200849088053
:103BF0003C2031F0A3FD02200549891E088031F0E8
:103C00009DFD6410681CC5B2082DE1DB70BD00008D
:103C10001A04025800B587B000BF4548006840F05C
:103C20000200434908600846006800F00200019065
:103C300000BF00BF00BF0846006840F001000860F8
:103C40000846006800F00100019000BF00BF00BFFF
:103C50000846006840F0040008600846006800F06C
:103C60000400019000BF00BF00BF0846006840F09C
:103C7000040008600846006800F00400019000BFDE
:103C800000BF00BF0846006840F0400008600846DA
:103C9000006800F04000019000BF00BF00BF084670
:103CA000006840F0010008600846006800F001006C
:103CB000019000BF00BF012003900020049002206B
:103CC00005908020029002A91A480BF0C1FE402006
:103CD000029002A918480BF0BBFE4020029002A9F6
:103CE00016480BF0B5FE8020029002A913480BF095
:103CF000AFFE4FF48060029002A911480BF0A8FEBD
:103D00002020029002A90C480BF0A2FE0021012005
:103D100000F01EF80021022000F01AF80021012016
:103D200000F032F80021022000F02EF807B000BDAC
:103D3000E0440258000402580000025800080258EB
:103D40000018025810B5002025F090FD10BD0000AD
:103D500001280AD1012903D18022094B1A800DE0E4
:103D60008022074B9B1C1A8008E0012903D14022C6
:103D7000044B1A8302E04022024B5A837047000032
:103D80001804025800000258012822D129B9402203
:103D9000234B1A8080221A8041E0012907D140225A
:103DA0001F4B9B1E1A8080229B1C1A8037E0022921
:103DB00006D140221A4B1A8080229B1E1A802EE0C8
:103DC00003292CD14022164B9B1E1A8080221A8078
:103DD00025E039B94FF48062124B1A802022124B31
:103DE0005A831CE0012907D18A020E4B9B1E1A80C0
:103DF00020220D4B5A8312E0022906D14A02094BB8
:103E00001A802022084B1A8309E0032907D14FF4B6
:103E10008062044B9B1E1A802022034B1A8370473A
:103E20001A0802581A1802580000025810B5044621
:103E3000204625F01BFD10BD70B506460C46154604
:103E4000054830600548206033F0FEFA33F07AFB15
:103E50002846FFF7EBFF70BD201E0624202606240F
:103E600010B5002025F002FD33F002FD33F000FD17
:103E700010BD0146002205E0002301F51F7040F847
:103E80002230521C0F2AF7D3002204E0002301F154
:103E90001C008354521CB2F5007FF7D30020087039
:103EA0004870012088700020C1F8B80201230B7609
:103EB00040238B7100234B7681F81C32012381F85B
:103EC0001D3270477047000010B511480068C06887
:103ED00030B10F480068C068401E0D490968C860CD
:103EE0000B480068C0680B4951F820000849096870
:103EF00048610748006840690749B1FBF0F0044990
:103F000009680861024909680869FFF78FFF10BD59
:103F100094000024F44A040840787D0170B5BAB0DA
:103F20004348006890F8480220B942A11AA8FCF75B
:103F30009FFA24E03E48006890F84802012804D126
:103F40003EA11AA8FCF794FA19E03948006890F8E5
:103F50004802022804D13BA11AA8FCF789FA0EE016
:103F60003348006890F84802032804D137A11AA802
:103F7000FCF77EFA03E037A11AA8FCF779FA1AA930
:103F80002B480068C0F8F0112948006800F5F0706F
:103F90001BF0F2FF2648006890F8490200EB400051
:103FA0002E4951F820402248006890F8490200EB61
:103FB000400001EB800045681D48006890F8490208
:103FC00000EB400001EB8000866812A9204607F054
:103FD000F1F80AA9284607F0EDF802A9304607F0E3
:103FE000E9F802A80AAB12AA1DA100901AA830F0A5
:103FF0004FFB1AA90E480068C0F840120C48006830
:1040000000F50C701BF0B8FF09490968D1F84402AB
:104010001AA907F0CFF81AA905480068C0F81812C5
:104020000348006800F502701BF0A6FF3AB070BDAF
:104030000C000024B9D8B1D500000000C8FDBDC7F0
:10404000B2A80000D5FDCFD2B2A80000B7BDB2A87B
:10405000000000007878787878000000C8490408EB
:1040600025732D25732C20B2BDBDF82025730000CB
:1040700010B54EF65B701BF031FC10480068203024
:104080001BF06CFE00240AE004EB84020B49096873
:10409000343101EB82001BF06FFF601CC4B20A2CAC
:1040A000F2DB0648006800F5E2701BF065FF03488C
:1040B000006800F5EC701BF00BFD10BD040000243F
:1040C00010B54EF65B701BF009FC104800682030FC
:1040D0001BF044FE00240AE004EB84020B4909684B
:1040E000343101EB82001BF047FF601CC4B20A2C84
:1040F000F2DB0648006800F5E2701BF03DFF034864
:10410000006800F5EC701BF0E3FC10BD100000240B
:1041100070B5A0B02A484078012806D129A12B48C3
:104120000068C0F8AC11022505E029A12748006805
:10413000C0F8AC1101252548006800F5CE701BF0D1
:104140001BFF002428E01E48801C30F9140068433F
:1041500040F6E441484345F2044190FBF1F618482B
:10416000801C30F9142033461BA1684630F090FAC9
:1041700004EB840215480068FC3000EB8200C0F8B4
:1041800010D004EB840211490968FC3101EB820074
:104190001BF0F2FE601CC4B2082CD4DB0848027885
:1041A00011A1684630F074FA08480068C0F8C0D120
:1041B0000648006800F5D8701BF0DEFE20B070BD28
:1041C00034810524A1C031305600000004000024D1
:1041D000A1C0355620000000253664202025366415
:1041E0006D56202000000000256400002DE9F041FC
:1041F000BAB01C22464913A8FCF7CCF84022444927
:104200001C3103A8FCF7C6F800255BE0414850F8D4
:104210002500414980FB0161404A00233046FCF7FC
:1042200088F80446002C1DDA64424FF47A7094FB3F
:10423000F0F100FB11463A4894FBF0F100FB11400D
:104240004FF47A7190FBF1F7354894FBF0F8314860
:10425000CDE9007650F82520434632A11AA830F067
:1042600017FA1BE04FF47A7094FBF0F100FB114653
:104270002B4894FBF0F100FB11404FF47A7190FB56
:10428000F1F7274894FBF0F82248CDE9007650F882
:104290002520434629A11AA830F0FAF91AA905EBFE
:1042A00085022C480068FC3000EB8200016105EBC0
:1042B000850228490968FC3101EB82001BF05CFE95
:1042C000681CC5B2082DA1DB1248001F007813A995
:1042D00051F820101F480068C0F8AC111D48006854
:1042E00000F5CE701BF048FE0A48001F407803A975
:1042F00051F8201017480068C0F8C0111548006830
:1043000000F5D8701BF038FE3AB0BDE8F08100002F
:10431000404A040894A60524A0252600FFFF3F007C
:1043200040420F002536642C282D25642E2530337D
:104330006420253033642056292000002536642C63
:10434000282025642E253033642025303364205600
:104350002920000010000024F0B58FB001208DF856
:10436000040046F20C30ADF806004EF65B70ADF876
:1043700008000020ADF80A000A2719254EF65B70E8
:104380004FF48C73EA222946009038461BF0AFFEAA
:104390001948B0F9002019A103A830F079F903A851
:1043A00002F03CF9144806780D2E00DD0D2600249D
:1043B0001DE01748006800F5CE7000EB8410406ADD
:1043C00000901348006800F5CE7000EB8413621C67
:1043D00010A103A830F05CF901AB03AA29463846C6
:1043E0001BF082FA05F1110085B2601CC4B2B44220
:1043F000DFDB0FB0F0BD000078040024B9B2C9A81B
:10440000C3E8B5BD2564B8F6576946692041500038
:1044100074040024253032643D25732C2025646407
:10442000426D000010B53248006800F5AA701BF01C
:104430004FFB2F4800687C301BF04AFB2C4800687B
:1044400094301BF045FB2A480068AC301BF040FB61
:1044500027480068C4301BF03BFB25480068DC306F
:104460001BF036FB22480068F4301BF031FB20487B
:104470000068DC301BF02CFB1D480068F4301BF09A
:1044800027FB1B48006800F586701BF021FB1848CD
:10449000006800F592701BF01BFB1548006800F5E2
:1044A0009E701BF015FB1248006800F5B6701BF0FB
:1044B0000FFB0F48006800F5C2701BF009FB0C48A9
:1044C000006800F5CE701BF003FB0948006800F59A
:1044D000DA701BF0FDFA0648006800F5E6701BF084
:1044E000F7FA0348006800F5F2701BF0F1FA10BD0E
:1044F000BC06002470B52DED028BA2B0B0EE408A50
:10450000112601208DF880001F20ADF882004EF6A4
:104510005B70ADF884000020ADF88600EB25972491
:10452000B7EEC80A53EC102B07A1684630F0B0F87C
:1045300020AB6A46214628461BF0D6F9344422B007
:10454000BDEC028B70BD0000B9E2D5D5B6C8202005
:104550003D2025362E3266206C7578002DE9F0411D
:10456000A2B0112501208DF880001F20ADF8820037
:104570004EF65B70ADF884000020ADF886000A2688
:1045800097241A4880690A2190FBF1F201FB120777
:104590001648806990FBF1F83B46424614A16846F4
:1045A00030F076F820AB6A46214630461BF09CF985
:1045B0002C440E48C0694FF47A7190FBF1F201FB74
:1045C00012070A48C06990FBF1F83B4642460EA12B
:1045D000684630F05DF820AB6A46214630461BF055
:1045E00083F92C4422B0BDE8F081000090A105249D
:1045F000BBB7BEB3CEC2B6C820203D202533642E43
:104600002564A1E600000000B4F3C6F8D1B9C1A644
:1046100020203D202533642E253033644B5061002B
:1046200008B547480088B0F5F07F2DD1454800888F
:10463000B0F5887F28D144484449098850F83100B2
:1046400088B941484149098800EBC1008088009041
:104650003C480088283882B2394803881421002059
:104660001BF045FD6BE038483849098850F83100A7
:10467000009034480088283882B2314803881421D9
:1046800000201BF013FA5AE02D480088B0F5F07FA7
:104690002DD12C480088B0F5A07F28D12A482B497D
:1046A000098850F8310088B929482849098800EB61
:1046B000C1008088009023480088283882B22048B2
:1046C0000388142100201BF012FD38E020481F4908
:1046D000098850F8310000901A480088283882B2C2
:1046E00017480388142100201BF0E0F927E0184840
:1046F0001649098850F8310088B9154813490988C6
:1047000000EBC100808800900E480088283882B2F3
:104710000B480388142100201BF0E9FC0FE00C4833
:104720000A49098850F83100009006480088283866
:1047300082B203480388142100201BF0B7F908BD9A
:104740001407002412070024204C0408320400241B
:10475000404C04080EB501208DF804004FF6FF70A0
:10476000ADF8060040F24D20ADF808000020ADF88D
:104770000A0040F24D20009009480088143881B2A8
:1047800008480388142200201BF0B1FC044800886C
:10479000123881B201AB04A205201BF0A5F80EBDB2
:1047A00012070024140700244B333AD0A3D7BC20AF
:1047B0004B313AB1B3BEB0204F4B3ACFD4CABEB79B
:1047C000BDCFF2007047000030B589B004460D46F9
:1047D00001208DF81C0049F69910ADF8200000204A
:1047E000ADF81E00ADF8220007A80490B4B90F4838
:1047F0000088403880B2ADF806000D4800882438A3
:1048000080B2ADF808002020ADF80A003C20ADF8D9
:104810000C008DF8185007A0059001E009B030BDDC
:1048200000BF01A81BF054F900BFF7E714070024EC
:1048300012070024B7B5BBD80000000010B54EF633
:104840005B701BF04BF81948006828301BF086FAA3
:10485000164800683C301BF08FFB1448006850304D
:104860001BF08AFB1148006864301BF085FB0F4881
:10487000006878301BF080FB0C4800688C301BF01F
:104880007BFB0A480068A0301BF076FB07480068F5
:10489000E4301BF01DF905480068B4301BF018F92E
:1048A00002480068CC301BF013F910BD80000024D2
:1048B000F8B556480068006800B9F8BD1F200090A0
:1048C000534803880722018801201BF085FB4F48CD
:1048D0000068008E4E49088008460088142802DAD5
:1048E0001420088006E04A480088DC2802DDDC202D
:1048F000474908804FF6E07000904548038805223C
:10490000018801201BF068FB4048006800F58050DA
:1049100090F8960338B901213C48006800F58050B2
:1049200080F8961306E000213848006800F58050B2
:1049300080F896133548006800F5805090F896038B
:1049400040B93248006800F136073048006800F28C
:10495000A22507E02D48006800F20E572B4800689A
:1049600000F27A75002424E004F10A0027F814000C
:10497000264800680168601C31F81000C0F500602E
:1049800000EB8000400000B220490968C96990FB33
:10499000F1F01E490968098E084406B2DC2E01DDDB
:1049A000DC2602E0142E00DA142625F81460601CC0
:1049B00004B2B4F5967FD7DB1448006800F5805048
:1049C00090F8960360B91F234FF496720F48016860
:1049D00001F27A71006800F20E501BF00FFB0AE042
:1049E0001F234FF496720948016801F2A221006862
:1049F00036301BF003FB4FF6E0734FF496722946F6
:104A000038461BF0FBFA00BF57E700009400002473
:104A10009C000024F8B54D480068406800B9F8BD16
:104A20001F2000904A4803880522018801201BF0BE
:104A3000D3FA46480068408E4549088008460088F9
:104A4000142802DA1420088006E041480088DC2897
:104A500002DDDC203E4908804FF4FC6000903C48B9
:104A600003880522018801201BF0B6FA3748006848
:104A700000F5805090F8960340B93448006800F67D
:104A8000E6173248006800F6524508E02F480068F3
:104A900000F6BE672D48006841F22A11451800242F
:104AA00024E004F10A0027F814002848006841684F
:104AB000601C31F81000C0F5006000EB8000400081
:104AC00000B222490968096A90FBF1F01F490968A0
:104AD000498E084406B2DC2E01DDDC2602E0142EED
:104AE00000DA142625F81460601C04B2B4F5967F31
:104AF000D7DB1648006800F5805090F8960370B92F
:104B00001F234FF496721148006841F22A110144A4
:104B10000E48006800F6BE601BF070FA0BE01F2321
:104B20004FF496720948016801F65241006800F698
:104B3000E6101BF063FA4FF4FC634FF496722946BB
:104B400038461BF05BFA00BF69E7000094000024C0
:104B50009E00002410B58AB001208DF800001F20AF
:104B6000ADF804004FF6FF70ADF802000020ADF87C
:104B700006006B467EA202210A201AF0B5FE7E488E
:104B8000006800F5805090F89803012804D17BA1BB
:104B900002A8FBF76DFC03E07AA102A8FBF768FC12
:104BA00075480068808CB0F57A7F0DDB724800682C
:104BB000808C4FF47A7190FBF1F4224673A10DF1D1
:104BC0000F002FF065FD07E06B480068828C71A133
:104BD0000DF10F002FF05CFD6748006890F834007D
:104BE000012808D14FF6E070ADF804004FF61F0021
:104BF000ADF8020006E04FF6E070ADF804001F20AB
:104C0000ADF802006B4602AAE0210A201AF06CFE01
:104C10004FF47840ADF802005748006800F5805026
:104C200090F89903012804D15CA102A8FBF720FCAD
:104C300003E05CA102A8FBF71BFC4F480068C08C96
:104C4000B0F57A7F0DDB4C480068C08C4FF47A7168
:104C500090FBF1F422464DA10DF10F002FF018FD4D
:104C600007E045480068C28C4AA10DF10F002FF003
:104C70000FFD4148006890F83400022808D14FF435
:104C8000FC60ADF804004FF61F00ADF8020006E02E
:104C90004FF4FC60ADF804001F20ADF802006B4635
:104CA00002AAE02178201AF01FFE4FF6FF70ADF83F
:104CB00002001F20ADF804002F4800684069B0F5DD
:104CC0007A7F07D22C48006838A1426902A82FF0E9
:104CD000DFFC1DE0284800684069374988420CD253
:104CE0002548006840694FF47A71B0FBF1F4224620
:104CF00032A102A82FF0CCFC0AE01F4800684069EE
:104D00002D49B0FBF1F422462FA102A82FF0C0FCE0
:104D10006B4602AAE021E6201AF0E6FD4FF6FF708E
:104D2000ADF802001F20ADF804001348006890F8A9
:104D30003500012806D16B4626A20221F5201AF083
:104D4000D3FD05E06B4626A20221F5201AF0CCFD2A
:104D50000948006825A1026902A82FF099FC6B465A
:104D600002AA02214B201AF0BFFD0AB010BD0000BC
:104D700056302E36000000009400002443483120B5
:104D800044432000434831204143200025642E3015
:104D90003056000025646D56000000004348322064
:104DA00044432000434832204143200054696D654C
:104DB000202533647573000040420F0054696D650F
:104DC000202533646D73000054696D6520253364BC
:104DD00073200000B5F7BDDACEBBD6C300000000DB
:104DE000B5F7BDDAB7F9B6C800000000B2C9D1F90D
:104DF000C6B5C2CA3A253764487A000070B5A4B077
:104E0000EB24D0256846FEF753FA0646012E1DD145
:104E10008DF888001F20ADF88A004EF65B70ADF863
:104E20008C000020ADF88E009DF805309DF806201E
:104E300015A102A82FF02CFC22AB02AA294620467D
:104E40001AF052FD0120174908701AE001208DF870
:104E500088004FF47840ADF88A004EF65B70ADF8EC
:104E60008C000020ADF88E000FA102A82FF010FCDE
:104E700022AB02AA294620461AF036FD0020094935
:104E8000087024B070BD0000CAAAB6C820256425E9
:104E9000252CCEC2B6C8202564A1E62020202020E3
:104EA0002020000034040024CEB4B7A2CFD644485A
:104EB0005431312020202020202000002DE9F04115
:104EC0002DED028BA4B045480078012804D124B010
:104ED000BDEC028BBDE8F0810A26D0256846FEF7BE
:104EE000EBFD074677B901208DF888004FF4784034
:104EF000ADF88A004EF65B70ADF88C000020ADF87E
:104F00008E000CE001208DF888001F20ADF88A008B
:104F10004EF65B70ADF88C000020ADF88E0030A12D
:104F200002A82FF0B5FB002419E002A8FBF77EFAD7
:104F300002A900EB01081DF804202BA140462FF028
:104F4000A7FB032C09D102A8FBF770FA02A900EB1A
:104F5000010824A140462FF09BFB601CC4B2082C22
:104F6000E3DB22AB02AA294630461AF0BDFCFEF76D
:104F7000BAFD044600EE104AB8EEC00AF3EE000A8D
:104F800080EE201AB7EEC10AB0EE408B8DED008B9B
:104F9000A2B217A102A82FF07BFB0A2605F111008F
:104FA00085B201208DF888001F20ADF88A004EF6EA
:104FB0005B70ADF88C000020ADF88E0022AB02AA29
:104FC000294630461AF090FC05F11A0081B222AB56
:104FD0000EA230461AF088FC00BF78E734040024A3
:104FE0006964203D20000000253032580000000098
:104FF000726567203D20307825303458202D3E20C2
:10500000252D342E303466A1E6200000445331387B
:10501000423230BACD4448543131B2BBC4DCCDAC9D
:10502000CAB1BDD3C8EBBFAAB7A2B0E5000000006B
:1050300010B5FFF7C7FB00F05FFEFFF78BFDFFF732
:1050400037FCFFF7E7FC10BD0EB509480068B0F863
:105050002C2208A168462FF01BFB05480068C0F809
:10506000D8D10348006800F5E4701AF085FF0EBD42
:1050700084000024256400000EB509480068B0F8DB
:105080002C2208A168462FF003FB05480068C0F8F1
:10509000D8D10348006800F5E4701AF06DFF0EBD2A
:1050A0008C000024256400003EB515490968B1F85C
:1050B0002C02FDF70BFF12490968C1F830021048B5
:1050C0000068D0F8300242F2107190FBF1F201FB5F
:1050D00012040B480068D0F8300290FBF1F523462B
:1050E0002A4608A168462FF0D3FA05480068C0F8A0
:1050F00000D20348006800F5F8701AF03DFF3EBD8D
:105100008400002425642E253034645600000000FD
:10511000FEB518490968B1F82C02FDF75FFF154983
:105120000968C1F8300213480068D0F83042002CFA
:1051300001DB204600E0604242F2107190FBF1F288
:1051400001FB12050B480068D0F8300290FBF1F625
:105150002B46324608A168462FF09AFA05480068A7
:10516000C0F800D20348006800F5F8701AF004FF98
:10517000FEBD00008C00002425642E2530346456CA
:105180000000000010B54EF65B701AF0A7FB3F4818
:10519000006820301AF0E2FD3C48006800F5DA7043
:1051A0001AF0EAFE3948006800F5E4701AF0E4FEEF
:1051B0003648006800F5EE701AF0DEFE33480068ED
:1051C00000F5F8701AF0D8FE304800684C301AF03C
:1051D0007FFC2E48006864301AF07AFC2B48006887
:1051E0007C301AF075FC2948006894301AF070FC85
:1051F00026480068AC301AF06BFC24480068C430C4
:105200001AF066FC21480068AC301AF061FC1F48B7
:105210000068C4301AF05CFC1C480068DC301AF0EE
:1052200057FC1A480068F4301AF052FC174800681E
:1052300000F586701AF04CFC1448006800F5927076
:105240001AF046FC1148006800F59E701AF040FC08
:105250000E48006800F5AA701AF03AFC0B48006886
:1052600000F5B6701AF034FC0848006800F5C2700A
:105270001AF02EFC0548006800F5CE701AF028FCE4
:105280000248006834301AF023FC10BD840000246A
:1052900010B54EF65B701AF021FB3F4800682030D5
:1052A0001AF05CFD3C48006800F5DA701AF064FE04
:1052B0003948006800F5E4701AF05EFE3648006870
:1052C00000F5EE701AF058FE3348006800F5F870EB
:1052D0001AF052FE304800684C301AF0F9FB2E48A4
:1052E000006864301AF0F4FB2B4800687C301AF038
:1052F000EFFB2948006894301AF0EAFB2648006862
:10530000AC301AF0E5FB24480068C4301AF0E0FB2A
:1053100021480068AC301AF0DBFB1F480068C4303D
:105320001AF0D6FB1C480068DC301AF0D1FB1A4892
:105330000068F4301AF0CCFB1748006800F586705E
:105340001AF0C6FB1448006800F592701AF0C0FB12
:105350001148006800F59E701AF0BAFB0E4800680C
:1053600000F5AA701AF0B4FB0B48006800F5B6709F
:105370001AF0AEFB0848006800F5C2701AF0A8FBEE
:105380000548006800F5CE701AF0A2FB02480068DC
:1053900034301AF09DFB10BD8C00002410B54EF681
:1053A0005B701AF09BFA4848006820301AF0D6FC6F
:1053B0004548006800F5E6701AF0DEFD42480068D6
:1053C00000F5F0701AF0D8FD3F48006800F5FA705B
:1053D0001AF0D2FD3C48006800F502701AF0CCFDCE
:1053E0003948006800F507701AF0C6FD36480068B5
:1053F00000F50C701AF0C0FD334800684C301AF00C
:1054000067FB3148006864301AF062FB2E48006880
:105410007C301AF05DFB2C48006894301AF058FB81
:1054200029480068AC301AF053FB27480068C430A4
:105430001AF04EFB24480068AC301AF049FB2248B1
:105440000068C4301AF044FB1F480068DC301AF0D2
:105450003FFB1D480068F4301AF03AFB1A48006818
:1054600000F586701AF034FB1748006800F592705A
:105470001AF02EFB1448006800F59E701AF028FB05
:105480001148006800F5AA701AF022FB0E48006867
:1054900000F5B6701AF01CFB0B48006800F5C270EE
:1054A0001AF016FB0848006800F5CE701AF010FBE1
:1054B0000548006800F5DA701AF00AFB0248006837
:1054C00034301AF005FB10BD0C00002410B54EF668
:1054D0005B701AF003FA1248006820301AF03EFCA4
:1054E0000F48006834301AF047FD0D4800685C3002
:1054F0001AF042FD0A48006884301AF03DFD084861
:10550000006848301AF038FD0548006870301AF01D
:1055100033FD0348006898301AF0DAFA10BD000035
:105520000800002410B54EF65B701AF0D7F92B482E
:10553000006820301AF012FC2848006834301AF055
:105540001BFD264800685C301AF016FD23480068F1
:1055500084301AF011FD2148006848301AF00CFD23
:105560001E48006870301AF007FD1C48006898302B
:105570001AF002FD19480068C4301AF0A9FA174859
:105580000068DC301AF0A4FA14480068F4301AF00D
:105590009FFA1248006800F586701AF099FA0F48D1
:1055A000006800F592701AF093FA0C48006800F554
:1055B0009E701AF08DFA0948006800F5AA701AF07A
:1055C000DBFC0648006800F5B4701AF0D5FC03480F
:1055D0000068AC301AF07CFA10BD0000D40600243C
:1055E00000B591B05E48006828301AF0B7FB5C48FF
:1055F00000683C301AF0C0FC5948006864301AF06A
:10560000BBFC574800688C301AF0B6FC5448006860
:10561000B4301AF0B1FC52480068DC301AF0ACFC2F
:105620004F48006800F5CE701AF052FA4C480068F6
:1056300000F592701AF04CFA4948006800F59E7027
:105640001AF046FA4648006800F5AA701AF040FAC7
:105650004348006800F5B6701AF03AFA404800680E
:1056600000F5C2701AF034FA3D480068F0301AF0C4
:1056700029FB3B48006850301AF07EFC384800682F
:1056800090F8D40128B937A135480068C0F88810CF
:1056900034E03348006890F8D401012805D137A1DF
:1056A0002F480068C0F8881028E02D48006890F85E
:1056B000D401022805D137A129480068C0F8881014
:1056C0001CE02748006890F8D401032805D137A1D1
:1056D00023480068C0F8881010E02148006890F85E
:1056E000D401052805D137A11D480068C0F88810ED
:1056F00004E03AA11A480068C0F888101848006809
:1057000078301AF039FC1648006890F8D50128B9AD
:1057100038A113480068C0F8B01004E03BA110485D
:105720000068C0F8B0100E480068A0301AF024FCE1
:105730000B480068B0F9D8310948006890F8D621C4
:1057400038A101A82EF0A4FF01A905480068C0F8FF
:10575000D81003480068C8301AF00EFC11B000BD24
:10576000A0000024C3BBD3D0D7A2B2E12C20D2D159
:10577000CDA3D6B9CBD1D1B000000000D2D1D7A2F1
:10578000B2E1B5BDB1BEB5D8CDF8C2E7202020202A
:1057900020200000D5FDD4DACBD1D1B0CDF8C2E7BE
:1057A000D4CBD3AAC9CC202000000000D7A2B2E1FC
:1057B000B1BBBEDCBEF820202020202020202020ED
:1057C00000000000D2D1D7A2B2E1B5BDC2FED3CE57
:1057D000CDF8C2E720202020200000007878782033
:1057E00020202020202020202020202020202020B9
:1057F00000000000B5DA31CDA8B5C020494E544DA7
:1058000049432C20494E544541520000B5DA32CD6F
:10581000A8B5C0204558544D49432C2045585445FF
:1058200041520000456172203D2025642C204D69C5
:1058300063203D20256400001CB55E48007A5D4968
:10584000C979CDE900105B48837942795AA15D4856
:105850000068D4302EF01CFF5648007B5549C97AA9
:10586000CDE900105348837A427A53A15548006825
:1058700000F584702EF00CFF4E48007C4D49C97B2A
:10588000CDE900104B48837B427B4BA14D4800681B
:1058900000F59E702EF0FCFE4648007D4549C97C0F
:1058A000CDE900104348837C427C43A14548006811
:1058B00000F5B8702EF0ECFE3E48007E3D49C97DF3
:1058C000CDE900103B48837D427D3BA13D48006807
:1058D00000F5D2702EF0DCFE3648007F3549C97ED7
:1058E000CDE900103348837E427E33A135480068FD
:1058F00000F5EC702EF0CCFE3248006848301AF00B
:105900003BFB304800685C301AF036FB2D480068DD
:1059100070301AF031FB2B480068C0301AF0D2F911
:1059200028480068F4301AF0CDF92648006800F5E0
:1059300094701AF0C7F92348006800F5FC701AF05B
:10594000C7F82048006884301AF016FB1D4800682C
:1059500098301AF011FB1B480068AC301AF00CFBB1
:105960001848006800F5AE701AF0ACF915480068E8
:1059700000F5C8701AF0A6F91248006800F5E27048
:105980001AF0A0F90F48006800F504701AF0A0F8AA
:105990000C48006800F50A701AF09AF80948006887
:1059A00020301AF0DBF90748006834301AF0D6F9D5
:1059B0001CBD0000C44E052425642E25642E2564DC
:1059C0002E256400D006002410B54EF65B7019F049
:1059D00085FF1C48006820301AF0C0F9194800689B
:1059E00034301AF0C9FA174800685C301AF0C4FA6B
:1059F0001448006884301AF0BFFA12480068AC30CE
:105A00001AF0BAFA0F480068D4301AF0B5FA0D4807
:105A1000006848301AF0B0FA0A48006870301AF08E
:105A2000ABFA0848006898301AF0A6FA05480068F2
:105A3000C0301AF0A1FA03480068E8301AF048F8BC
:105A400010BD00003804002410B54EF65B7019F04C
:105A500045FF1948006820301AF080F916480068A0
:105A600034301AF089FA144800685C301AF084FA6D
:105A70001148006884301AF07FFA0F480068AC3093
:105A80001AF07AFA0C48006848301AF075FA0A4899
:105A9000006870301AF070FA0748006898301AF001
:105AA0006BFA05480068C0301AF066FA02480068D0
:105AB000D4301AF00DF810BD4004002410B506488B
:105AC000006864301AF0C9FAFEF7ACFC02480068BE
:105AD00030301AF0F7F810BDBC06002410B54EF6B1
